S015000044485432325F4C4344313658322E73726563A8
S11300000C94B5000C94D2000C94D2000C94D20041
S11300100C94D2000C94D2000C94D2000C94D20014
S11300200C94D2000C94D2000C94D2000C94D20004
S11300300C94D2000C94D2000C94D2000C94D200F4
S11300400C94D2000C94D2000C94D2000C94D200E4
S11300500C94D2000C94D2000C94D2000C94D200D4
S11300600C94D2000C94D2006E616E00696E66002E
S113007000407A10F35A00A0724E18090010A5D45B
S1130080E80000E87648170000E40B54020000CAB8
S11300909A3B000000E1F5050000809698000000FE
S11300A040420F000000A08601000000102700005D
S11300B00000E803000000006400000000000A00E3
S11300C0000000000100000000002C76D888DC67E6
S11300D04F0823DFC1DFAE59E1B1B796E5E3E4533E
S11300E0C63AE651997696E8E6C28426EB898C9B5B
S11300F062ED407C6FFCEFBC9C9F40F2BAA56FA5FB
S1130100F490055A2AF75C936B6CF9676DC11BFC7C
S1130110E0E40D47FEF520E6B500D0ED902E030097
S1130120943577050080841E080000204E0A0000E4
S113013000C80C333333330F986E12831141EF8DA3
S11301402114893BE65516CFFEE6DB18D1844B38E3
S11301501BF77C1D901DA4BBE424203284725E2214
S11301608100C9F124ECA1E53D2711241FBECFEF86
S1130170D8E0DEBFCDBF11E0A0E0B1E0E2E5F7E1F9
S113018002C005900D92A437B107D9F721E0A4E786
S1130190B1E001C01D92A138B207E1F70E94E40268
S11301A00C94A70B0C940000519A50981092C00024
S11301B088E98093C10086E08093C2001092C50054
S11301C087E68093C40080E091E090937E01809361
S11301D07D010895E0ECF0E0908195FFFDCF8093E0
S11301E0C60008950E94EA0080E090E0089580FF30
S11301F002C05D9A01C05D9881FF02C05E9A01C091
S11302005E9882FF02C05F9A01C05F9883FF02C0BC
S1130210289A01C028985C9A85E08A95F1F7000035
S11302205C980895CF93C82F5B98000082958F70D7
S11302300E94F7008C2F8F700E94F700C150C230CB
S113024038F48FE39FE10197F1F700C0000006C086
S113025087EC90E00197F1F700C00000CF9108957A
S11302605C985B985D985E985F982898549A539A26
S1130270559A569A579A209A2FEF89EF90E0215079
S113028080409040E1F700C0000083E00E94F70046
S11302908FE19EE40197F1F700C0000083E00E9423
S11302A0F7008FE891E00197F1F700C0000083E0C8
S11302B00E94F7008FE891E00197F1F700C0000079
S11302C082E00E94F7008FE891E00197F1F700C007
S11302D0000088E20E9412018CE00E94120181E079
S11302E00E94120186E00E94120180E80E9412011D
S11302F00895CF93C82F5B9A000082958F700E9457
S1130300F7008C2F8F700E94F70087EC90E0019724
S1130310F1F700C00000CF910895CF93DF93EC0173
S11303208881882331F021960E9479018991811175
S1130330FBCFDF91CF91089580EC0E9412010895C4
S113034081E00E9412018FED9EE20197F1F700C057
S113035000000895529A5A9A0895CF92DF92EF922C
S1130360FF920F931F93CF93DF9300D000D01F927F
S1130370CDB7DEB77C015A982FEF80EE90E0215084
S113038080409040E1F700C000005A9A52988FE1F3
S113039009C0EAE0EA95F1F700C0815019F4529AD5
S11303A05A9A8CC04A99F5CF83E309C0FAE0FA95CA
S11303B0F1F700C0815019F4529A5A9A7FC04A9BAF
S11303C0F5CF83E309C02AE02A95F1F700C08150F4
S11303D019F4529A5A9A72C04A99F5CFDE011196CD
S11303E08E010A5F1F4FE1E0F0E019C04A9BFECF87
S11303F08AEB8A95F1F700C04A9B08C0AF01022E30
S113040002C0440F551F0A94E2F7942B4A99FECF79
S11304102150310958F79D930A171B0721F027E053
S113042030E090E0E3CF529A5A9A39810A812B81C5
S11304309C81832F800F820F890F4D8184133DC0CF
S11304406B0110E0132B692F70E0722B7723A4F457
S11304507F7780E090E00E94110420E030E040E2E9
S113046051E40E949F03DC01CB01B058F701808363
S11304709183A283B3830FC080E090E00E941104B3
S113048020E030E040E251E40E949F03F7016083E2
S1130490718382839383B80180E090E00E94110409
S11304A020E030E040E251E40E949F03F6016083C3
S11304B071838283938381E001C081E00F900F9068
S11304C00F900F900F90DF91CF911F910F91FF909C
S11304D0EF90DF90CF900895813051F018F0823082
S11304E081F00895ECE7F0E080818F7380830895B4
S11304F0ECE7F0E080818F77808380818064808363
S11305000895ECE7F0E08081806C80830895EAE749
S1130510F0E080818068808380818F7D808380810A
S11305208F7D808380818760808308958230D9F0B5
S113053028F4882349F0813069F00895843029F142
S1130540D8F0853059F10895ECE7F0E08081807FA0
S113055080830895ECE7F0E08081817F808380814F
S1130560816080830895ECE7F0E08081827F80835E
S11305708081826080830895ECE7F0E08081837F4E
S113058080838081836080830895ECE7F0E080813C
S1130590847F80838081846080830895ECE7F0E029
S11305A08081857F80838081856080830895EAE7E8
S11305B0F0E0808180648083808186FDFDCF80911E
S11305C07800909179000895CF93DF93CDB7DEB78B
S11305D062970FB6F894DEBF0FBECDBF81E00E94D4
S11305E06C020E9487020E9430010E94D4000E9483
S11305F0AA0188EC0F2EFBE68F2EF1E09F2EF02D42
S11306000F2EFEE0AF2EF1E0BF2EF02D0F2EF4E200
S1130610CF2EF1E0DF2EF02D0F2EFEE3EF2EF1E0D2
S1130620FF2EF02D8F5F883C08F482C080E00E948A
S113063096020E94D70290937501809374014AE058
S113064066E771E00E946109BE01615F7F4FCE01E0
S11306500B960E94AD01882309F45CC08DE090E004
S11306600E94D80986E791E09F938F93BF92AF923F
S11306700E94C2098E858F938D858F938C858F936D
S11306808B858F93DF92CF920E94C2098A898F93C0
S113069089898F9388898F938F858F93FF92EF92A7
S11306A00E94C2098DE090E00E94D8090E94A00136
S11306B080E591E00E948D016B857C858D859E850A
S11306C08E010F5F1F4F22E042E00E945308C801D1
S11306D00E948D0188E591E00E948D010E949C0199
S11306E08BE591E00E948D016F85788989899A89CB
S11306F022E042E00E945308C8010E948D0182E674
S113070091E00E948D010FB6F894DEBF0FBECDBFFD
S113071080E088CF0E94A00185E691E00E948D01CF
S11307209F928F920E94C2090F900F9080E07ACF1F
S1130730EFE3FCE93197F1F700C0000073CF0E94AA
S1130740B3030C9465040E945E0458F00E9457049D
S113075040F029F45F3F29F00C944E0451110C949D
S113076099040C9454040E94760468F39923B1F319
S1130770552391F3951B550BBB27AA2762177307C3
S1130780840738F09F5F5F4F220F331F441FAA1F57
S1130790A9F335D00E2E3AF0E0E832D09150504013
S11307A0E695001CCAF72BD0FE2F29D0660F771FC1
S11307B0881FBB1F261737074807AB07B0E809F0A7
S11307C0BB0B802DBF01FF2793585F4F3AF09E3F2C
S11307D0510578F00C944E040C9499045F3FE4F3B3
S11307E0983ED4F3869577956795B795F7959F5F6F
S11307F0C9F7880F911D9695879597F90895E1E0BB
S1130800660F771F881FBB1F621773078407BA0719
S113081020F0621B730B840BBA0BEE1F88F7E09574
S11308200895E89409C097FB3EF4909580957095DF
S113083061957F4F8F4F9F4F9923A9F0F92F96E928
S1130840BB279395F695879577956795B795F1119D
S1130850F8CFFAF4BB0F11F460FF1BC06F5F7F4F3A
S11308608F4F9F4F16C0882311F096E911C077234C
S113087021F09EE8872F762F05C0662371F096E855
S1130880862F70E060E02AF09A95660F771F881F24
S1130890DAF7880F9695879597F9089597F99F67E2
S11308A080E870E060E008959FEF80EC08950024F4
S11308B00A941616170618060906089500240A94C1
S11308C012161306140605060895092E0394000C47
S11308D011F4882352F0BB0F40F4BF2B11F460FFD6
S11308E004C06F5F7F4F8F4F9F4F089557FD9058FF
S11308F0440F551F59F05F3F71F04795880F97FBE0
S1130900991F61F09F3F79F0879508951216130699
S11309101406551FF2CF4695F1DF08C016161706C8
S11309201806991FF1CF86957105610508940895FD
S1130930E894BB2766277727CB0197F90895A0E1B0
S1130940B0E0E5EAF4E00C941C087C011B016A01A8
S1130950FC0117821682838181FF44C39E012F5FAD
S11309603F4F3901F7019381F10193FD859193FF85
S113097081911F01882309F431C3853239F493FD31
S1130980859193FF81911F01853239F4B70190E07D
S11309900E94860956016501E5CF10E0512C912C87
S11309A0FFE1F915D8F08B3279F038F4803279F020
S11309B08332A1F4F92DF0612EC08D3261F08033C1
S11309C069F4292D21602DC0392D3260932E892D93
S11309D08460982E2AC0E92DE86015C097FC2DC0CC
S11309E020ED280F2A3088F496FE06C03AE0139FC3
S11309F0200D1124122F19C08AE0589E200D1124B5
S1130A00522EE92DE0629E2E10C08E3231F496FCF7
S1130A10E5C2F92DF0649F2E08C08C3621F4292DEF
S1130A202068922E02C0883641F4F10193FD85912D
S1130A3093FF81911F018111B3CF9BEB980F9330EA
S1130A4020F4992D9061805E07C09BE9980F933044
S1130A5008F066C1992D9F7E96FF16E09F73992E2C
S1130A60853619F49064992E08C0863621F4392FFE
S1130A703068932E02C01111115097FE07C01C3329
S1130A8050F444244394410E27E00BC0183038F04E
S1130A9027E017E005C027E09CE3492E02C0212F80
S1130AA0412C560184E0A80EB11CF60160817181CD
S1130AB082819381042DA3010E9473086C01F98142
S1130AC0FC87F0FF02C0F3FF06C091FC06C092FE53
S1130AD006C000E205C00DE203C00BE201C000E065
S1130AE08C858C7019F001115AC29BC297FE10C0FC
S1130AF04C0CFC85F4FF04C08A81813309F44A94C8
S1130B00141474F528E0241578F588E0482E2CC0D8
S1130B1096FC2AC0812F90E08C159D059CF03CEF3B
S1130B20C3163FEFD30674F0892D8068982E0AC04F
S1130B30E2E0F0E0EC0FFD1FE10FF11D8081803356
S1130B4019F411501111F4CF97FE0EC044244394AC
S1130B50410E812F90E0C816D9062CF41C1904C04C
S1130B604424439401C010E097FE06C01C141D04E5
S1130B7034F4C601019605C085E090E002C081E02E
S1130B8090E001110196112331F0212F30E02F5F05
S1130B903F4F820F931F252D30E08217930714F4E3
S1130BA0581A01C0512C892D897049F4552039F007
S1130BB0B70180E290E00E9486095A94F7CF00239F
S1130BC029F0B701802F90E00E94860993FC09C0A8
S1130BD0552039F0B70180E390E00E9486095A94C9
S1130BE0F7CF97FE4CC04601D7FE02C0812C912C52
S1130BF0C60188199909F301E80FF91FFE87ED87EB
S1130C00960124193109388B2F87012F10E0119593
S1130C10019511093FEF8316930629F4B7018EE27B
S1130C2090E00E948609C814D9044CF08F859889F5
S1130C308815990524F4ED85FE85818101C080E342
S1130C40F1E08F1A91082D853E852F5F3F4F3E8737
S1130C502D87801691062CF0B70190E00E9486093A
S1130C60D9CFC814D90441F49A81963320F495332A
S1130C7019F43C8534FF81E3B70190E04EC08A81CA
S1130C80813319F09C859F7E9C87B70190E00E9478
S1130C908609111105C094FC18C085E690E017C0C0
S1130CA0B7018EE290E00E9486091E5F82E001E0B7
S1130CB0080FF301E80FF11D8081B70190E00E9455
S1130CC08609802F0113F3CFE6CF85E490E0B701C6
S1130CD00E948609D7FC06C0C114D10441F4EC85F6
S1130CE0E4FF05C0D194C194D1088DE201C08BE228
S1130CF0B70190E00E94860980E32AE0C216D1047D
S1130D002CF08F5FFAE0CF1AD108F7CFB70190E04B
S1130D100E948609B701C601C0960E94860954C183
S1130D20833631F0833779F0833509F056C020C01B
S1130D30560132E0A30EB11CF6018081898301E0E3
S1130D4010E0630112C05601F2E0AF0EB11CF601CF
S1130D50C080D18096FE03C0612F70E002C06FEFA7
S1130D607FEFC6010E9456098C01F92DFF7714C04C
S1130D70560122E0A20EB11CF601C080D18096FE7D
S1130D8003C0612F70E002C06FEF7FEFC6010E94C5
S1130D904B098C01F92DF0689F2EF3FD1AC0852DA7
S1130DA090E008171907A8F4B70180E290E00E94C8
S1130DB086095A94F4CFF60197FC859197FE8191A8
S1130DC06F01B70190E00E94860951105A940150B6
S1130DD011090115110579F7F7C0843611F0893628
S1130DE061F5560197FE09C024E0A20EB11CF6017C
S1130DF060817181828193810AC0F2E0AF0EB11CDF
S1130E00F60160817181072E000C880B990BF92D76
S1130E10FF769F2E97FF09C09095809570956195F8
S1130E207F4F8F4F9F4FF0689F2E2AE030E0A30141
S1130E300E94DF09C82EC6183FC0092D853721F44A
S1130E400F7E2AE030E01DC0097F8F3691F018F440
S1130E50883559F0C3C0803719F0883711F0BEC007
S1130E60006104FF09C0046007C094FE08C0066066
S1130E7006C028E030E005C020E130E002C020E1F7
S1130E8032E0560107FF09C084E0A80EB11CF60148
S1130E90608171818281938108C0F2E0AF0EB11C40
S1130EA0F6016081718180E090E0A3010E94DF0976
S1130EB0C82EC6180F77902E96FE0BC0092D0E7FF4
S1130EC0C11650F494FE0AC092FC08C0092D0E7E8F
S1130ED005C0DC2C092D03C0DC2C01C0D12E04FF7D
S1130EE00DC0FE01EC0DF11D8081803311F4097EEB
S1130EF009C002FF06C0D394D39404C0802F86781F
S1130F0009F0D39403FD11C000FF06C01C2DD514B5
S1130F1080F4150D1D190DC0D51458F4B70180E2E5
S1130F2090E00E948609D394F7CFD51410F45D188D
S1130F3001C0512C04FF10C0B70180E390E00E946F
S1130F40860902FF17C001FD03C088E790E002C0D4
S1130F5088E590E0B7010CC0802F867859F001FF36
S1130F6002C08BE201C080E207FD8DE2B70190E090
S1130F700E948609C11638F4B70180E390E00E940C
S1130F8086091150F7CFCA94F301EC0DF11D80814D
S1130F90B70190E00E948609C110F5CF15C0F4E0B6
S1130FA0F51560F584E0581A93FE1FC0011127C09F
S1130FB02C8523FF2AC008E610E0392D3071932ECA
S1130FC0F8018491811124C0552009F4E4CCB701BF
S1130FD080E290E00E9486095A94F6CFF701868158
S1130FE0978126C08FEF9FEF23C0B70180E290E086
S1130FF00E9486095A945110F8CFD8CF512CB701CA
S1131000802F90E00E948609D3CF0CE610E0D5CF64
S113101091108052B70190E00E9486090F5F1F4F24
S1131020CFCF23E0251510F483E0BDCF512CC0CFE2
S11310306096E2E10C9438082F923F924F925F92AF
S11310406F927F928F929F92AF92BF92CF92DF92D4
S1131050EF92FF920F931F93CF93DF93CDB7DEB739
S1131060CA1BDB0B0FB6F894DEBF0FBECDBF0994CD
S11310702A88398848885F846E847D848C849B8424
S1131080AA84B984C884DF80EE80FD800C811B8132
S1131090AA81B981CE0FD11D0FB6F894DEBF0FBE61
S11310A0CDBFED010895EF920F931F93CF93DF937C
S11310B0E80147FD02C034E001C034E1042E000C15
S11310C0550B57FF03C0519541955109E32E022F4B
S11310D0242FAE010E943D0ACE01DF91CF911F91D2
S11310E00F91EF900895283008F027E03327DA01B4
S11310F0990F311D87FD916000966105710539F4E2
S113110032602E5F3D9330E32A95E1F708959F3FC7
S113111030F080387105610509F03C5F3C5F3D9318
S1131120913008F08068911DDF93CF931F930F9344
S1131130FF92EF92192F987F9695E92F96959695A1
S1131140E90FFF27E653FF4F99273327EE24FF24A7
S1131150A701E70105900894079428F4360FE71EC9
S1131160F81E491F511D660F771F881F991F06948B
S1131170A1F70590079428F4E70EF81E491F561F9F
S1131180C11D770F881F991F661F0694A1F705904C
S1131190079428F4F80E491F561FC71FD11D880F46
S11311A0991F661F771F0694A1F70590079420F4F2
S11311B0490F561FC71FD81F990F661F771F881F17
S11311C00694A9F784911095177041F0D695C795A8
S11311D057954795F794E7941A95C1F7E0E7F0E03F
S11311E068941590159135916591959105907FE2DC
S11311F07395E118F10A430B560BC90BD009C0F7DC
S1131200E10CF11E431F561FC91FD01D7EF470331D
S113121011F48A95E6CFE894015030F0080F0AF4EF
S11312200027021708F4202F2395022F7A3328F081
S113123079E37D932A95E9F710C07D932A9589F681
S1131240069497956795379517951794E118F10AC1
S1131250430B560BC90BD00998F023957E917395D7
S11312607A3308F070E37C932013B8F77E917061B1
S11312707D9330F0839571E37D9370E32A95E1F7D4
S11312801124EF90FF900F911F91CF91DF91992737
S113129087FD90950895FC01059061507040011000
S11312A0D8F7809590958E0F9F1F0895FC0161508B
S11312B0704001900110D8F7809590958E0F9F1F74
S11312C00895BB274A3031F4992322F4BDE2909566
S11312D081959F4F0C946D09BB27FB015527AA27C5
S11312E0880F991FAA1FA41710F0A41B83955051AF
S11312F0B9F7A05DAA3308F0A95DA193009779F727
S1131300B111B1931192CB010C94970B0F931F93CE
S1131310CF93DF93FB01238121FD03C08FEF9FEF68
S11313202CC022FF16C04681578124813581421783
S1131330530744F4A081B1819D012F5F3F4F318356
S113134020838C93268137812F5F3F4F37832683F9
S113135014C08B01EC01FB010084F185E02D09959B
S1131360892BE1F6D80116968D919C9117970196D9
S113137017969C938E931697CE01DF91CF911F9170
S11313800F910895A0E0B0E0E8ECF9E00C942C088B
S1131390AE014B5F5F4FFA0161917191AF01809192
S11313A07D0190917E010E949F04E2E00C94480824
S11313B060917D0170917E010E9486090895FA0171
S11313C0AA27283051F1203181F1E8946F936E7F80
S11313D06E5F7F4F8F4F9F4FAF4FB1E03ED0B4E071
S11313E03CD0670F781F891F9A1FA11D680F791FB2
S11313F08A1F911DA11D6A0F711D811D911DA11DC3
S113140020D009F468943F912AE0269F11243019D2
S1131410305D3193DEF6CF010895462F4770405D6D
S11314204193B3E00FD0C9F7F6CF462F4F70405D1C
S11314304A3318F0495D31FD4052419302D0A9F777
S1131440EACFB4E0A6959795879577956795BA9571
S1131450C9F700976105710508959B01AC010A2E37
S113146006945795479537952795BA95C9F7620F0E
S1131470731F841F951FA01D0895A9E0B0E0E3E445
S1131480FAE00C9422086A01122FB02E2BE32017E5
S113149020F0FF24F394F00E02C02CE3F22E0F2D63
S11314A027E0AE014F5F5F4F0E947308BC01498182
S11314B0842F8970813031F0E1FC06C0E0FE06C063
S11314C090E205C09DE203C09BE201C090E05E2D66
S11314D0507143FF3CC0911102C083E001C084E01D
S11314E0811718F4212F281B01C020E051110BC0D3
S11314F0F601822F30E2882319F031938150FBCF1B
S1131500C20ED11C20E0992329F0D6019C93F60148
S113151031966F01C6010396E2FE0AC03EE4D6018D
S11315203C9341E411964C93119712963C9306C058
S11315303EE6F601308341E641833283FC01322FDB
S113154040E2332309F442C041933150FACF42FFC1
S113155044C0911102C083E001C084E0811718F4F3
S1131560212F281B01C020E051110BC0F601822F4E
S113157030E2882319F031938150FBCFC20ED11C85
S113158020E0992329F0D6019C93F60131966F014E
S1131590C6010396E2FE0BC039E4D6013C933EE457
S11315A011963C93119736E412963C9307C039E6A2
S11315B0F60130833EE6318336E63283FC01322F76
S11315C040E2332319F041933150FBCFFC01E20F89
S11315D0F11D10828EEF9FEFA6C021E030E0911143
S11315E002C020E030E0161617061CF4FB01319609
S11315F002C0E1E0F0E02E0F3F1FBB2021F0EB2DF5
S1131600F0E0319602C0E0E0F0E02E0F3F1FE12F42
S1131610F0E02E173F071CF4121B212F01C020E01D
S11316208E2D887159F4F601822F30E2882319F047
S113163031938150FBCFC20ED11C20E0992329F0B5
S1131640D6019C93F60131966F0151110BC0F6013E
S1131650822F90E3882319F091938150FBCFC20E1F
S1131660D11C20E00F2D060F9A81342F307144FFD6
S113167003C0913309F40150101624F4093018F012
S113168008E001C001E0AB0177FF02C040E050E098
S1131690FB01E41BF50BA1E0B0E0AC0FBD1FEA0FAA
S11316A0FB1F8EE2A82E4B01801A91080B2D10E02F
S11316B01195019511094F3FBFEF5B0721F4D60146
S11316C0AC9211966D01641775072CF0841695067B
S11316D014F4818101C080E3415051093196D6014F
S11316E011967D014017510724F0D6018C936701B0
S11316F0E2CF6417750739F4963320F4953319F45F
S1131700311101C081E3F6018083F701822F90E259
S1131710882319F091938150FBCFF701E20FF11D5B
S1131720108280E090E02996ECE00C943E08DC0105
S1131730FC01672F71917723E1F7329704C07C9104
S11317406D9370836291AE17BF07C8F30895F89440
S1051750FFCFC5
S11317520000000200000000F200000000004C75CE
S11317626D696E6F736964616465203A2025732E16
S1131772320A0D0054656D70657261747572612070
S11317822843BA293A2025322E32660A0D00556DB5
S11317926964616465203A2025322E32660A0D009E
S11317A22054656D702E200020430020556D692E53
S11317B220002025004572726F72004552524F522A
S10717C20A0D000008
S9030000FC
